:020000020000FC
:1000000000E011E02FEF30E045E050E0AEE12AB92A
:100010002BB980E38DB931B922B92EB90E945E00A7
:100020000E9462000E946600069908C00A17A1F1AA
:1000300003950E9462000E946600F6CF059908C0F1
:10004000301799F10A950E9462000E946600ECCF79
:10005000049907C00E945E000E9462000E94660030
:10006000E3CF039907C0039BFECF0E94BF000E940D
:100070006600DACF669907C0669BFECF0E946600D5
:100080000E94EF00D1CF0799CFCF079BFECF0E94F0
:1000900066000E948300C8CF0E945E000E9462003A
:1000A0000E9471000E946600BFCF0E9460000E9403
:1000B00062000E9471000E946600B6CF032F08956F
:1000C0000A2F0895102E10941BB80895F0E0E0E078
:1000D000D9E10000DA95E9F76A95D1F77A95B9F791
:1000E0000895FFE274980E947B00749A0E947B003E
:1000F000FA95C1F70895E4E6D0E00000DA95E9F753
:10010000EA95D1F708950E945E000E9462005F9810
:10011000069910C0069BFECF0A1761F003950E9456
:1001200062005F980E9466000699F6CF069BFECF9C
:100130000E946600059910C0059BFECF003061F05B
:100140000A950E9462005F980E9466000599F6CFAA
:10015000059BFECF0E9466005F98049905C00E942F
:100160005E000E9462005F980799D2CF079BFECF86
:100170000E945E000E9462000E946600089501E0F5
:100180000E94620075985F980E9462005F980E94CA
:100190006600069906C0069BFECF0034A1F0000F52
:1001A000F3CF059906C0059BFECF013071F006958F
:1001B000EBCF049903C0049BFECF05C00399E4CFA5
:1001C000039BFECF04C001E0DFCF00E4DDCF0E943F
:1001D0005E000E946200759A0E94660008950E9467
:1001E0005E000E946200759880B18095082780B1FA
:1001F00080958030E1F70E9462000E946600669957
:10020000F3CF669BFECF00C0759A0E945E000E94ED
:0402100062000895EB
:00000001FF
